{
  "_format": "hh-sol-artifact-1",
  "contractName": "ArtBaselTickets",
  "sourceName": "contracts/ArtBaselTickets.sol",
  "abi": [
    {
      "inputs": [
        {
          "internalType": "uint256",
          "name": "initialPrice",
          "type": "uint256"
        },
        {
          "internalType": "uint256",
          "name": "_maxSupply",
          "type": "uint256"
        },
        {
          "internalType": "string",
          "name": "baseUri",
          "type": "string"
        },
        {
          "internalType": "uint256",
          "name": "_priceIncrementStep",
          "type": "uint256"
        }
      ],
      "stateMutability": "nonpayable",
      "type": "constructor"
    },
    {
      "anonymous": false,
      "inputs": [
        {
          "indexed": true,
          "internalType": "address",
          "name": "owner",
          "type": "address"
        },
        {
          "indexed": true,
          "internalType": "address",
          "name": "approved",
          "type": "address"
        },
        {
          "indexed": true,
          "internalType": "uint256",
          "name": "tokenId",
          "type": "uint256"
        }
      ],
      "name": "Approval",
      "type": "event"
    },
    {
      "anonymous": false,
      "inputs": [
        {
          "indexed": true,
          "internalType": "address",
          "name": "owner",
          "type": "address"
        },
        {
          "indexed": true,
          "internalType": "address",
          "name": "operator",
          "type": "address"
        },
        {
          "indexed": false,
          "internalType": "bool",
          "name": "approved",
          "type": "bool"
        }
      ],
      "name": "ApprovalForAll",
      "type": "event"
    },
    {
      "anonymous": false,
      "inputs": [
        {
          "indexed": true,
          "internalType": "address",
          "name": "previousOwner",
          "type": "address"
        },
        {
          "indexed": true,
          "internalType": "address",
          "name": "newOwner",
          "type": "address"
        }
      ],
      "name": "OwnershipTransferred",
      "type": "event"
    },
    {
      "anonymous": false,
      "inputs": [
        {
          "indexed": false,
          "internalType": "address",
          "name": "buyer",
          "type": "address"
        },
        {
          "indexed": false,
          "internalType": "uint256",
          "name": "amount",
          "type": "uint256"
        }
      ],
      "name": "TicketBought",
      "type": "event"
    },
    {
      "anonymous": false,
      "inputs": [
        {
          "indexed": true,
          "internalType": "address",
          "name": "from",
          "type": "address"
        },
        {
          "indexed": true,
          "internalType": "address",
          "name": "to",
          "type": "address"
        },
        {
          "indexed": true,
          "internalType": "uint256",
          "name": "tokenId",
          "type": "uint256"
        }
      ],
      "name": "Transfer",
      "type": "event"
    },
    {
      "anonymous": false,
      "inputs": [
        {
          "indexed": false,
          "internalType": "address",
          "name": "claimer",
          "type": "address"
        },
        {
          "indexed": false,
          "internalType": "uint256",
          "name": "amount",
          "type": "uint256"
        }
      ],
      "name": "UserClaimed",
      "type": "event"
    },
    {
      "inputs": [],
      "name": "_owner",
      "outputs": [
        {
          "internalType": "address",
          "name": "",
          "type": "address"
        }
      ],
      "stateMutability": "view",
      "type": "function"
    },
    {
      "inputs": [],
      "name": "aFee",
      "outputs": [
        {
          "internalType": "uint256",
          "name": "",
          "type": "uint256"
        }
      ],
      "stateMutability": "view",
      "type": "function"
    },
    {
      "inputs": [
        {
          "internalType": "address",
          "name": "to",
          "type": "address"
        },
        {
          "internalType": "uint256",
          "name": "tokenId",
          "type": "uint256"
        }
      ],
      "name": "approve",
      "outputs": [],
      "stateMutability": "nonpayable",
      "type": "function"
    },
    {
      "inputs": [
        {
          "internalType": "address",
          "name": "owner",
          "type": "address"
        }
      ],
      "name": "balanceOf",
      "outputs": [
        {
          "internalType": "uint256",
          "name": "",
          "type": "uint256"
        }
      ],
      "stateMutability": "view",
      "type": "function"
    },
    {
      "inputs": [],
      "name": "baseURI",
      "outputs": [
        {
          "internalType": "string",
          "name": "",
          "type": "string"
        }
      ],
      "stateMutability": "view",
      "type": "function"
    },
    {
      "inputs": [],
      "name": "claim",
      "outputs": [],
      "stateMutability": "nonpayable",
      "type": "function"
    },
    {
      "inputs": [
        {
          "internalType": "address",
          "name": "user",
          "type": "address"
        }
      ],
      "name": "claimableEth",
      "outputs": [
        {
          "internalType": "uint256",
          "name": "",
          "type": "uint256"
        }
      ],
      "stateMutability": "view",
      "type": "function"
    },
    {
      "inputs": [],
      "name": "currentNftPrice",
      "outputs": [
        {
          "internalType": "uint256",
          "name": "",
          "type": "uint256"
        }
      ],
      "stateMutability": "view",
      "type": "function"
    },
    {
      "inputs": [
        {
          "internalType": "uint256",
          "name": "tokenId",
          "type": "uint256"
        }
      ],
      "name": "getApproved",
      "outputs": [
        {
          "internalType": "address",
          "name": "",
          "type": "address"
        }
      ],
      "stateMutability": "view",
      "type": "function"
    },
    {
      "inputs": [
        {
          "internalType": "uint256",
          "name": "amount",
          "type": "uint256"
        }
      ],
      "name": "getNFTPrice",
      "outputs": [
        {
          "internalType": "uint256",
          "name": "",
          "type": "uint256"
        }
      ],
      "stateMutability": "view",
      "type": "function"
    },
    {
      "inputs": [
        {
          "internalType": "address",
          "name": "owner",
          "type": "address"
        },
        {
          "internalType": "address",
          "name": "operator",
          "type": "address"
        }
      ],
      "name": "isApprovedForAll",
      "outputs": [
        {
          "internalType": "bool",
          "name": "",
          "type": "bool"
        }
      ],
      "stateMutability": "view",
      "type": "function"
    },
    {
      "inputs": [],
      "name": "maxSupply",
      "outputs": [
        {
          "internalType": "uint256",
          "name": "",
          "type": "uint256"
        }
      ],
      "stateMutability": "view",
      "type": "function"
    },
    {
      "inputs": [
        {
          "internalType": "uint256",
          "name": "numberOfTickets",
          "type": "uint256"
        },
        {
          "internalType": "address",
          "name": "affiliate",
          "type": "address"
        }
      ],
      "name": "mintTicket",
      "outputs": [],
      "stateMutability": "payable",
      "type": "function"
    },
    {
      "inputs": [],
      "name": "name",
      "outputs": [
        {
          "internalType": "string",
          "name": "",
          "type": "string"
        }
      ],
      "stateMutability": "view",
      "type": "function"
    },
    {
      "inputs": [],
      "name": "owner",
      "outputs": [
        {
          "internalType": "address",
          "name": "",
          "type": "address"
        }
      ],
      "stateMutability": "view",
      "type": "function"
    },
    {
      "inputs": [
        {
          "internalType": "uint256",
          "name": "tokenId",
          "type": "uint256"
        }
      ],
      "name": "ownerOf",
      "outputs": [
        {
          "internalType": "address",
          "name": "",
          "type": "address"
        }
      ],
      "stateMutability": "view",
      "type": "function"
    },
    {
      "inputs": [],
      "name": "priceIncrementStep",
      "outputs": [
        {
          "internalType": "uint256",
          "name": "",
          "type": "uint256"
        }
      ],
      "stateMutability": "view",
      "type": "function"
    },
    {
      "inputs": [],
      "name": "renounceOwnership",
      "outputs": [],
      "stateMutability": "nonpayable",
      "type": "function"
    },
    {
      "inputs": [
        {
          "internalType": "address",
          "name": "from",
          "type": "address"
        },
        {
          "internalType": "address",
          "name": "to",
          "type": "address"
        },
        {
          "internalType": "uint256",
          "name": "tokenId",
          "type": "uint256"
        }
      ],
      "name": "safeTransferFrom",
      "outputs": [],
      "stateMutability": "nonpayable",
      "type": "function"
    },
    {
      "inputs": [
        {
          "internalType": "address",
          "name": "from",
          "type": "address"
        },
        {
          "internalType": "address",
          "name": "to",
          "type": "address"
        },
        {
          "internalType": "uint256",
          "name": "tokenId",
          "type": "uint256"
        },
        {
          "internalType": "bytes",
          "name": "_data",
          "type": "bytes"
        }
      ],
      "name": "safeTransferFrom",
      "outputs": [],
      "stateMutability": "nonpayable",
      "type": "function"
    },
    {
      "inputs": [],
      "name": "saleStartTime",
      "outputs": [
        {
          "internalType": "uint256",
          "name": "",
          "type": "uint256"
        }
      ],
      "stateMutability": "view",
      "type": "function"
    },
    {
      "inputs": [
        {
          "internalType": "address",
          "name": "operator",
          "type": "address"
        },
        {
          "internalType": "bool",
          "name": "approved",
          "type": "bool"
        }
      ],
      "name": "setApprovalForAll",
      "outputs": [],
      "stateMutability": "nonpayable",
      "type": "function"
    },
    {
      "inputs": [
        {
          "internalType": "string",
          "name": "uri",
          "type": "string"
        }
      ],
      "name": "setBaseUri",
      "outputs": [],
      "stateMutability": "nonpayable",
      "type": "function"
    },
    {
      "inputs": [
        {
          "internalType": "bytes4",
          "name": "interfaceId",
          "type": "bytes4"
        }
      ],
      "name": "supportsInterface",
      "outputs": [
        {
          "internalType": "bool",
          "name": "",
          "type": "bool"
        }
      ],
      "stateMutability": "view",
      "type": "function"
    },
    {
      "inputs": [],
      "name": "symbol",
      "outputs": [
        {
          "internalType": "string",
          "name": "",
          "type": "string"
        }
      ],
      "stateMutability": "view",
      "type": "function"
    },
    {
      "inputs": [
        {
          "internalType": "uint256",
          "name": "index",
          "type": "uint256"
        }
      ],
      "name": "tokenByIndex",
      "outputs": [
        {
          "internalType": "uint256",
          "name": "",
          "type": "uint256"
        }
      ],
      "stateMutability": "view",
      "type": "function"
    },
    {
      "inputs": [
        {
          "internalType": "address",
          "name": "owner",
          "type": "address"
        },
        {
          "internalType": "uint256",
          "name": "index",
          "type": "uint256"
        }
      ],
      "name": "tokenOfOwnerByIndex",
      "outputs": [
        {
          "internalType": "uint256",
          "name": "",
          "type": "uint256"
        }
      ],
      "stateMutability": "view",
      "type": "function"
    },
    {
      "inputs": [
        {
          "internalType": "uint256",
          "name": "tokenId",
          "type": "uint256"
        }
      ],
      "name": "tokenURI",
      "outputs": [
        {
          "internalType": "string",
          "name": "",
          "type": "string"
        }
      ],
      "stateMutability": "view",
      "type": "function"
    },
    {
      "inputs": [],
      "name": "totalSupply",
      "outputs": [
        {
          "internalType": "uint256",
          "name": "",
          "type": "uint256"
        }
      ],
      "stateMutability": "view",
      "type": "function"
    },
    {
      "inputs": [
        {
          "internalType": "address",
          "name": "from",
          "type": "address"
        },
        {
          "internalType": "address",
          "name": "to",
          "type": "address"
        },
        {
          "internalType": "uint256",
          "name": "tokenId",
          "type": "uint256"
        }
      ],
      "name": "transferFrom",
      "outputs": [],
      "stateMutability": "nonpayable",
      "type": "function"
    },
    {
      "inputs": [
        {
          "internalType": "address",
          "name": "newOwner",
          "type": "address"
        }
      ],
      "name": "transferOwnership",
      "outputs": [],
      "stateMutability": "nonpayable",
      "type": "function"
    }
  ],
  "bytecode": "0x60806040526012600f5560326010556103e86011553480156200002157600080fd5b50604051620045e5380380620045e58339818101604052810190620000479190620002fa565b6040518060400160405280601181526020017f41727420426173656c205469636b6574730000000000000000000000000000008152506040518060400160405280600381526020017f41425400000000000000000000000000000000000000000000000000000000008152508160009080519060200190620000cb92919062000233565b508060019080519060200190620000e492919062000233565b50505062000107620000fb6200016560201b60201c565b6200016d60201b60201c565b42600b8190555080600d8190555081600e8190555033601260006101000a81548173ffffffffffffffffffffffffffffffffffffffff021916908373ffffffffffffffffffffffffffffffffffffffff1602179055505050620003cf565b600033905090565b6000600a60009054906101000a900473ffffffffffffffffffffffffffffffffffffffff16905081600a60006101000a81548173ffffffffffffffffffffffffffffffffffffffff021916908373ffffffffffffffffffffffffffffffffffffffff1602179055508173ffffffffffffffffffffffffffffffffffffffff168173ffffffffffffffffffffffffffffffffffffffff167f8be0079c531659141344cd1fd0a4f28419497f9722a3daafe3b4186f6b6457e060405160405180910390a35050565b82805462000241906200034b565b90600052602060002090601f016020900481019282620002655760008555620002b1565b82601f106200028057805160ff1916838001178555620002b1565b82800160010185558215620002b1579182015b82811115620002b057825182559160200191906001019062000293565b5b509050620002c09190620002c4565b5090565b5b80821115620002df576000816000905550600101620002c5565b5090565b600081519050620002f481620003b5565b92915050565b60008060408385031215620003145762000313620003b0565b5b60006200032485828601620002e3565b92505060206200033785828601620002e3565b9150509250929050565b6000819050919050565b600060028204905060018216806200036457607f821691505b602082108114156200037b576200037a62000381565b5b50919050565b7f4e487b7100000000000000000000000000000000000000000000000000000000600052602260045260246000fd5b600080fd5b620003c08162000341565b8114620003cc57600080fd5b50565b61420680620003df6000396000f3fe6080604052600436106101e35760003560e01c80636352211e11610102578063b2bdfa7b11610095578063d5abeb0111610064578063d5abeb01146106d7578063e985e9c514610702578063f2fde38b1461073f578063fb107a4f14610768576101e3565b8063b2bdfa7b1461061b578063b88d4fde14610646578063c87b56dd1461066f578063cc2f6093146106ac576101e3565b80638da5cb5b116100d15780638da5cb5b1461058057806395d89b41146105ab578063a22cb465146105d6578063a7182051146105ff576101e3565b80636352211e146104c457806370a0823114610501578063715018a61461053e5780638a054ac214610555576101e3565b806323b872dd1161017a57806342842e0e1161014957806342842e0e1461041c578063480d00c3146104455780634e71d92d146104705780634f6ccce714610487576101e3565b806323b872dd146103625780632f745c591461038b57806331000e17146103c857806340d097c3146103f3576101e3565b8063095ea7b3116101b6578063095ea7b3146102b8578063139fc94e146102e157806318160ddd1461030c5780631cbaee2d14610337576101e3565b806301ffc9a7146101e8578063058508441461022557806306fdde0314610250578063081812fc1461027b575b600080fd5b3480156101f457600080fd5b5061020f600480360381019061020a9190612dab565b610793565b60405161021c919061333e565b60405180910390f35b34801561023157600080fd5b5061023a6107a5565b604051610247919061367b565b60405180910390f35b34801561025c57600080fd5b506102656107ab565b6040516102729190613359565b60405180910390f35b34801561028757600080fd5b506102a2600480360381019061029d9190612e05565b61083d565b6040516102af91906132ae565b60405180910390f35b3480156102c457600080fd5b506102df60048036038101906102da9190612d6b565b6108c2565b005b3480156102ed57600080fd5b506102f66109da565b604051610303919061367b565b60405180910390f35b34801561031857600080fd5b506103216109e0565b60405161032e919061367b565b60405180910390f35b34801561034357600080fd5b5061034c6109f1565b604051610359919061367b565b60405180910390f35b34801561036e57600080fd5b5061038960048036038101906103849190612c55565b6109f7565b005b34801561039757600080fd5b506103b260048036038101906103ad9190612d6b565b610a57565b6040516103bf919061367b565b60405180910390f35b3480156103d457600080fd5b506103dd610afc565b6040516103ea919061367b565b60405180910390f35b3480156103ff57600080fd5b5061041a60048036038101906104159190612be8565b610b02565b005b34801561042857600080fd5b50610443600480360381019061043e9190612c55565b610b22565b005b34801561045157600080fd5b5061045a610b42565b604051610467919061367b565b60405180910390f35b34801561047c57600080fd5b50610485610b89565b005b34801561049357600080fd5b506104ae60048036038101906104a99190612e05565b610d50565b6040516104bb919061367b565b60405180910390f35b3480156104d057600080fd5b506104eb60048036038101906104e69190612e05565b610dc1565b6040516104f891906132ae565b60405180910390f35b34801561050d57600080fd5b5061052860048036038101906105239190612be8565b610e73565b604051610535919061367b565b60405180910390f35b34801561054a57600080fd5b50610553610f2b565b005b34801561056157600080fd5b5061056a610fb3565b604051610577919061367b565b60405180910390f35b34801561058c57600080fd5b50610595610fb9565b6040516105a291906132ae565b60405180910390f35b3480156105b757600080fd5b506105c0610fe3565b6040516105cd9190613359565b60405180910390f35b3480156105e257600080fd5b506105fd60048036038101906105f89190612d2b565b611075565b005b61061960048036038101906106149190612e32565b6111f6565b005b34801561062757600080fd5b50610630611616565b60405161063d91906132ae565b60405180910390f35b34801561065257600080fd5b5061066d60048036038101906106689190612ca8565b61163c565b005b34801561067b57600080fd5b5061069660048036038101906106919190612e05565b61169e565b6040516106a39190613359565b60405180910390f35b3480156106b857600080fd5b506106c1611745565b6040516106ce919061367b565b60405180910390f35b3480156106e357600080fd5b506106ec61174b565b6040516106f9919061367b565b60405180910390f35b34801561070e57600080fd5b5061072960048036038101906107249190612c15565b611751565b604051610736919061333e565b60405180910390f35b34801561074b57600080fd5b5061076660048036038101906107619190612be8565b6117e5565b005b34801561077457600080fd5b5061077d6118dd565b60405161078a919061367b565b60405180910390f35b600061079e826118e7565b9050919050565b600c5481565b6060600080546107ba906138fa565b80601f01602080910402602001604051908101604052809291908181526020018280546107e6906138fa565b80156108335780601f1061080857610100808354040283529160200191610833565b820191906000526020600020905b81548152906001019060200180831161081657829003601f168201915b5050505050905090565b600061084882611961565b610887576040517f08c379a000000000000000000000000000000000000000000000000000000000815260040161087e9061353b565b60405180910390fd5b6004600083815260200190815260200160002060009054906101000a900473ffffffffffffffffffffffffffffffffffffffff169050919050565b60006108cd82610dc1565b90508073ffffffffffffffffffffffffffffffffffffffff168373ffffffffffffffffffffffffffffffffffffffff16141561093e576040517f08c379a0000000000000000000000000000000000000000000000000000000008152600401610935906135bb565b60405180910390fd5b8073ffffffffffffffffffffffffffffffffffffffff1661095d6119cd565b73ffffffffffffffffffffffffffffffffffffffff16148061098c575061098b816109866119cd565b611751565b5b6109cb576040517f08c379a00000000000000000000000000000000000000000000000000000000081526004016109c2906134bb565b60405180910390fd5b6109d583836119d5565b505050565b600e5481565b60006109ec6014611a8e565b905090565b600b5481565b610a08610a026119cd565b82611a9c565b610a47576040517f08c379a0000000000000000000000000000000000000000000000000000000008152600401610a3e9061363b565b60405180910390fd5b610a52838383611b7a565b505050565b6000610a6283610e73565b8210610aa3576040517f08c379a0000000000000000000000000000000000000000000000000000000008152600401610a9a906133bb565b60405180910390fd5b600660008473ffffffffffffffffffffffffffffffffffffffff1673ffffffffffffffffffffffffffffffffffffffff168152602001908152602001600020600083815260200190815260200160002054905092915050565b60105481565b610b1581610b106014611a8e565b611dd6565b610b1f6014611df4565b50565b610b3d8383836040518060200160405280600081525061163c565b505050565b6000601360003373ffffffffffffffffffffffffffffffffffffffff1673ffffffffffffffffffffffffffffffffffffffff16815260200190815260200160002054905090565b6000601360003373ffffffffffffffffffffffffffffffffffffffff1673ffffffffffffffffffffffffffffffffffffffff1681526020019081526020016000205411610c0b576040517f08c379a0000000000000000000000000000000000000000000000000000000008152600401610c02906133fb565b60405180910390fd5b3373ffffffffffffffffffffffffffffffffffffffff166108fc601360003373ffffffffffffffffffffffffffffffffffffffff1673ffffffffffffffffffffffffffffffffffffffff168152602001908152602001600020549081150290604051600060405180830381858888f19350505050158015610c90573d6000803e3d6000fd5b507f5329b89678b0f095cae2abe10b88ad57329871ee9296ae8f358a46b9fa0ff32833601360003373ffffffffffffffffffffffffffffffffffffffff1673ffffffffffffffffffffffffffffffffffffffff16815260200190815260200160002054604051610d01929190613315565b60405180910390a16000601360003373ffffffffffffffffffffffffffffffffffffffff1673ffffffffffffffffffffffffffffffffffffffff16815260200190815260200160002081905550565b6000610d5a611e0a565b8210610d9b576040517f08c379a0000000000000000000000000000000000000000000000000000000008152600401610d929061365b565b60405180910390fd5b60088281548110610daf57610dae613a93565b5b90600052602060002001549050919050565b6000806002600084815260200190815260200160002060009054906101000a900473ffffffffffffffffffffffffffffffffffffffff169050600073ffffffffffffffffffffffffffffffffffffffff168173ffffffffffffffffffffffffffffffffffffffff161415610e6a576040517f08c379a0000000000000000000000000000000000000000000000000000000008152600401610e61906134fb565b60405180910390fd5b80915050919050565b60008073ffffffffffffffffffffffffffffffffffffffff168273ffffffffffffffffffffffffffffffffffffffff161415610ee4576040517f08c379a0000000000000000000000000000000000000000000000000000000008152600401610edb906134db565b60405180910390fd5b600360008373ffffffffffffffffffffffffffffffffffffffff1673ffffffffffffffffffffffffffffffffffffffff168152602001908152602001600020549050919050565b610f336119cd565b73ffffffffffffffffffffffffffffffffffffffff16610f51610fb9565b73ffffffffffffffffffffffffffffffffffffffff1614610fa7576040517f08c379a0000000000000000000000000000000000000000000000000000000008152600401610f9e9061355b565b60405180910390fd5b610fb16000611e17565b565b60115481565b6000600a60009054906101000a900473ffffffffffffffffffffffffffffffffffffffff16905090565b606060018054610ff2906138fa565b80601f016020809104026020016040519081016040528092919081815260200182805461101e906138fa565b801561106b5780601f106110405761010080835404028352916020019161106b565b820191906000526020600020905b81548152906001019060200180831161104e57829003601f168201915b5050505050905090565b61107d6119cd565b73ffffffffffffffffffffffffffffffffffffffff168273ffffffffffffffffffffffffffffffffffffffff1614156110eb576040517f08c379a00000000000000000000000000000000000000000000000000000000081526004016110e29061347b565b60405180910390fd5b80600560006110f86119cd565b73ffffffffffffffffffffffffffffffffffffffff1673ffffffffffffffffffffffffffffffffffffffff16815260200190815260200160002060008473ffffffffffffffffffffffffffffffffffffffff1673ffffffffffffffffffffffffffffffffffffffff16815260200190815260200160002060006101000a81548160ff0219169083151502179055508173ffffffffffffffffffffffffffffffffffffffff166111a56119cd565b73ffffffffffffffffffffffffffffffffffffffff167f17307eab39ab6107e8899845ad3d59bd9653f200f220920489ca2b5937696c31836040516111ea919061333e565b60405180910390a35050565b600b5442101561123b576040517f08c379a00000000000000000000000000000000000000000000000000000000081526004016112329061361b565b60405180910390fd5b600d546112466109e0565b10611286576040517f08c379a000000000000000000000000000000000000000000000000000000000815260040161127d906135db565b60405180910390fd5b600082116112c9576040517f08c379a00000000000000000000000000000000000000000000000000000000081526004016112c0906135fb565b60405180910390fd5b600d54826112d56109e0565b6112df919061372f565b1115611320576040517f08c379a00000000000000000000000000000000000000000000000000000000081526004016113179061337b565b60405180910390fd5b346113296118dd565b111561136a576040517f08c379a00000000000000000000000000000000000000000000000000000000081526004016113619061339b565b60405180910390fd5b6113726109e0565b600c8190555060005b8281101561139f5761138c33610b02565b80806113979061395d565b91505061137b565b503373ffffffffffffffffffffffffffffffffffffffff16601260009054906101000a900473ffffffffffffffffffffffffffffffffffffffff1673ffffffffffffffffffffffffffffffffffffffff1614156114cd573460136000601260009054906101000a900473ffffffffffffffffffffffffffffffffffffffff1673ffffffffffffffffffffffffffffffffffffffff1673ffffffffffffffffffffffffffffffffffffffff16815260200190815260200160002054611463919061372f565b60136000601260009054906101000a900473ffffffffffffffffffffffffffffffffffffffff1673ffffffffffffffffffffffffffffffffffffffff1673ffffffffffffffffffffffffffffffffffffffff168152602001908152602001600020819055506115a9565b6114d78134611edd565b60136000601260009054906101000a900473ffffffffffffffffffffffffffffffffffffffff1673ffffffffffffffffffffffffffffffffffffffff1673ffffffffffffffffffffffffffffffffffffffff16815260200190815260200160002054611543919061372f565b60136000601260009054906101000a900473ffffffffffffffffffffffffffffffffffffffff1673ffffffffffffffffffffffffffffffffffffffff1673ffffffffffffffffffffffffffffffffffffffff168152602001908152602001600020819055505b600f54600c546115b96014611a8e565b6115c39190613810565b106115d9576115d86115d3611fa0565b611fbd565b5b7f985d112c54c7518a49841fc37640d9ded60112ea7370ca9129c8ed33c3607bc7338360405161160a929190613315565b60405180910390a15050565b601260009054906101000a900473ffffffffffffffffffffffffffffffffffffffff1681565b61164d6116476119cd565b83611a9c565b61168c576040517f08c379a00000000000000000000000000000000000000000000000000000000081526004016116839061363b565b60405180910390fd5b61169884848484611fc7565b50505050565b60606116a982611961565b6116e8576040517f08c379a00000000000000000000000000000000000000000000000000000000081526004016116df9061359b565b60405180910390fd5b60006116f2612023565b90506000815111611712576040518060200160405280600081525061173d565b8061171c84612060565b60405160200161172d92919061328a565b6040516020818303038152906040525b915050919050565b600f5481565b600d5481565b6000600560008473ffffffffffffffffffffffffffffffffffffffff1673ffffffffffffffffffffffffffffffffffffffff16815260200190815260200160002060008373ffffffffffffffffffffffffffffffffffffffff1673ffffffffffffffffffffffffffffffffffffffff16815260200190815260200160002060009054906101000a900460ff16905092915050565b6117ed6119cd565b73ffffffffffffffffffffffffffffffffffffffff1661180b610fb9565b73ffffffffffffffffffffffffffffffffffffffff1614611861576040517f08c379a00000000000000000000000000000000000000000000000000000000081526004016118589061355b565b60405180910390fd5b600073ffffffffffffffffffffffffffffffffffffffff168173ffffffffffffffffffffffffffffffffffffffff1614156118d1576040517f08c379a00000000000000000000000000000000000000000000000000000000081526004016118c89061341b565b60405180910390fd5b6118da81611e17565b50565b6000600e54905090565b60007f780e9d63000000000000000000000000000000000000000000000000000000007bffffffffffffffffffffffffffffffffffffffffffffffffffffffff1916827bffffffffffffffffffffffffffffffffffffffffffffffffffffffff1916148061195a5750611959826121c1565b5b9050919050565b60008073ffffffffffffffffffffffffffffffffffffffff166002600084815260200190815260200160002060009054906101000a900473ffffffffffffffffffffffffffffffffffffffff1673ffffffffffffffffffffffffffffffffffffffff1614159050919050565b600033905090565b816004600083815260200190815260200160002060006101000a81548173ffffffffffffffffffffffffffffffffffffffff021916908373ffffffffffffffffffffffffffffffffffffffff160217905550808273ffffffffffffffffffffffffffffffffffffffff16611a4883610dc1565b73ffffffffffffffffffffffffffffffffffffffff167f8c5be1e5ebec7d5bd14f71427d1e84f3dd0314c0f7b2291e5b200ac8c7c3b92560405160405180910390a45050565b600081600001549050919050565b6000611aa782611961565b611ae6576040517f08c379a0000000000000000000000000000000000000000000000000000000008152600401611add9061349b565b60405180910390fd5b6000611af183610dc1565b90508073ffffffffffffffffffffffffffffffffffffffff168473ffffffffffffffffffffffffffffffffffffffff161480611b6057508373ffffffffffffffffffffffffffffffffffffffff16611b488461083d565b73ffffffffffffffffffffffffffffffffffffffff16145b80611b715750611b708185611751565b5b91505092915050565b8273ffffffffffffffffffffffffffffffffffffffff16611b9a82610dc1565b73ffffffffffffffffffffffffffffffffffffffff1614611bf0576040517f08c379a0000000000000000000000000000000000000000000000000000000008152600401611be79061357b565b60405180910390fd5b600073ffffffffffffffffffffffffffffffffffffffff168273ffffffffffffffffffffffffffffffffffffffff161415611c60576040517f08c379a0000000000000000000000000000000000000000000000000000000008152600401611c579061345b565b60405180910390fd5b611c6b8383836122a3565b611c766000826119d5565b6001600360008573ffffffffffffffffffffffffffffffffffffffff1673ffffffffffffffffffffffffffffffffffffffff1681526020019081526020016000206000828254611cc69190613810565b925050819055506001600360008473ffffffffffffffffffffffffffffffffffffffff1673ffffffffffffffffffffffffffffffffffffffff1681526020019081526020016000206000828254611d1d919061372f565b92505081905550816002600083815260200190815260200160002060006101000a81548173ffffffffffffffffffffffffffffffffffffffff021916908373ffffffffffffffffffffffffffffffffffffffff160217905550808273ffffffffffffffffffffffffffffffffffffffff168473ffffffffffffffffffffffffffffffffffffffff167fddf252ad1be2c89b69c2b068fc378daa952ba7f163c4a11628f55a4df523b3ef60405160405180910390a4505050565b611df08282604051806020016040528060008152506122b3565b5050565b6001816000016000828254019250508190555050565b6000600880549050905090565b6000600a60009054906101000a900473ffffffffffffffffffffffffffffffffffffffff16905081600a60006101000a81548173ffffffffffffffffffffffffffffffffffffffff021916908373ffffffffffffffffffffffffffffffffffffffff1602179055508173ffffffffffffffffffffffffffffffffffffffff168173ffffffffffffffffffffffffffffffffffffffff167f8be0079c531659141344cd1fd0a4f28419497f9722a3daafe3b4186f6b6457e060405160405180910390a35050565b60008060115460105484611ef191906137b6565b611efb9190613785565b905080601360008673ffffffffffffffffffffffffffffffffffffffff1673ffffffffffffffffffffffffffffffffffffffff16815260200190815260200160002054611f48919061372f565b601360008673ffffffffffffffffffffffffffffffffffffffff1673ffffffffffffffffffffffffffffffffffffffff168152602001908152602001600020819055508083611f979190613810565b91505092915050565b60006703782dace9d90000600e54611fb8919061372f565b905090565b80600e8190555050565b611fd2848484611b7a565b611fde8484848461230e565b61201d576040517f08c379a0000000000000000000000000000000000000000000000000000000008152600401612014906133db565b60405180910390fd5b50505050565b60606040518060400160405280600781526020017f6578616d706c6500000000000000000000000000000000000000000000000000815250905090565b606060008214156120a8576040518060400160405280600181526020017f300000000000000000000000000000000000000000000000000000000000000081525090506121bc565b600082905060005b600082146120da5780806120c39061395d565b915050600a826120d39190613785565b91506120b0565b60008167ffffffffffffffff8111156120f6576120f5613ac2565b5b6040519080825280601f01601f1916602001820160405280156121285781602001600182028036833780820191505090505b5090505b600085146121b5576001826121419190613810565b9150600a8561215091906139a6565b603061215c919061372f565b60f81b81838151811061217257612171613a93565b5b60200101907effffffffffffffffffffffffffffffffffffffffffffffffffffffffffffff1916908160001a905350600a856121ae9190613785565b945061212c565b8093505050505b919050565b60007f80ac58cd000000000000000000000000000000000000000000000000000000007bffffffffffffffffffffffffffffffffffffffffffffffffffffffff1916827bffffffffffffffffffffffffffffffffffffffffffffffffffffffff1916148061228c57507f5b5e139f000000000000000000000000000000000000000000000000000000007bffffffffffffffffffffffffffffffffffffffffffffffffffffffff1916827bffffffffffffffffffffffffffffffffffffffffffffffffffffffff1916145b8061229c575061229b826124a5565b5b9050919050565b6122ae83838361250f565b505050565b6122bd8383612623565b6122ca600084848461230e565b612309576040517f08c379a0000000000000000000000000000000000000000000000000000000008152600401612300906133db565b60405180910390fd5b505050565b600061232f8473ffffffffffffffffffffffffffffffffffffffff166127f1565b15612498578373ffffffffffffffffffffffffffffffffffffffff1663150b7a026123586119cd565b8786866040518563ffffffff1660e01b815260040161237a94939291906132c9565b602060405180830381600087803b15801561239457600080fd5b505af19250505080156123c557506040513d601f19601f820116820180604052508101906123c29190612dd8565b60015b612448573d80600081146123f5576040519150601f19603f3d011682016040523d82523d6000602084013e6123fa565b606091505b50600081511415612440576040517f08c379a0000000000000000000000000000000000000000000000000000000008152600401612437906133db565b60405180910390fd5b805181602001fd5b63150b7a0260e01b7bffffffffffffffffffffffffffffffffffffffffffffffffffffffff1916817bffffffffffffffffffffffffffffffffffffffffffffffffffffffff19161491505061249d565b600190505b949350505050565b60007f01ffc9a7000000000000000000000000000000000000000000000000000000007bffffffffffffffffffffffffffffffffffffffffffffffffffffffff1916827bffffffffffffffffffffffffffffffffffffffffffffffffffffffff1916149050919050565b61251a838383612804565b600073ffffffffffffffffffffffffffffffffffffffff168373ffffffffffffffffffffffffffffffffffffffff16141561255d5761255881612809565b61259c565b8173ffffffffffffffffffffffffffffffffffffffff168373ffffffffffffffffffffffffffffffffffffffff161461259b5761259a8382612852565b5b5b600073ffffffffffffffffffffffffffffffffffffffff168273ffffffffffffffffffffffffffffffffffffffff1614156125df576125da816129bf565b61261e565b8273ffffffffffffffffffffffffffffffffffffffff168273ffffffffffffffffffffffffffffffffffffffff161461261d5761261c8282612a90565b5b5b505050565b600073ffffffffffffffffffffffffffffffffffffffff168273ffffffffffffffffffffffffffffffffffffffff161415612693576040517f08c379a000000000000000000000000000000000000000000000000000000000815260040161268a9061351b565b60405180910390fd5b61269c81611961565b156126dc576040517f08c379a00000000000000000000000000000000000000000000000000000000081526004016126d39061343b565b60405180910390fd5b6126e8600083836122a3565b6001600360008473ffffffffffffffffffffffffffffffffffffffff1673ffffffffffffffffffffffffffffffffffffffff1681526020019081526020016000206000828254612738919061372f565b92505081905550816002600083815260200190815260200160002060006101000a81548173ffffffffffffffffffffffffffffffffffffffff021916908373ffffffffffffffffffffffffffffffffffffffff160217905550808273ffffffffffffffffffffffffffffffffffffffff16600073ffffffffffffffffffffffffffffffffffffffff167fddf252ad1be2c89b69c2b068fc378daa952ba7f163c4a11628f55a4df523b3ef60405160405180910390a45050565b600080823b905060008111915050919050565b505050565b6008805490506009600083815260200190815260200160002081905550600881908060018154018082558091505060019003906000526020600020016000909190919091505550565b6000600161285f84610e73565b6128699190613810565b905060006007600084815260200190815260200160002054905081811461294e576000600660008673ffffffffffffffffffffffffffffffffffffffff1673ffffffffffffffffffffffffffffffffffffffff168152602001908152602001600020600084815260200190815260200160002054905080600660008773ffffffffffffffffffffffffffffffffffffffff1673ffffffffffffffffffffffffffffffffffffffff168152602001908152602001600020600084815260200190815260200160002081905550816007600083815260200190815260200160002081905550505b6007600084815260200190815260200160002060009055600660008573ffffffffffffffffffffffffffffffffffffffff1673ffffffffffffffffffffffffffffffffffffffff16815260200190815260200160002060008381526020019081526020016000206000905550505050565b600060016008805490506129d39190613810565b9050600060096000848152602001908152602001600020549050600060088381548110612a0357612a02613a93565b5b906000526020600020015490508060088381548110612a2557612a24613a93565b5b906000526020600020018190555081600960008381526020019081526020016000208190555060096000858152602001908152602001600020600090556008805480612a7457612a73613a64565b5b6001900381819060005260206000200160009055905550505050565b6000612a9b83610e73565b905081600660008573ffffffffffffffffffffffffffffffffffffffff1673ffffffffffffffffffffffffffffffffffffffff168152602001908152602001600020600083815260200190815260200160002081905550806007600084815260200190815260200160002081905550505050565b6000612b22612b1d846136bb565b613696565b905082815260208101848484011115612b3e57612b3d613af6565b5b612b498482856138b8565b509392505050565b600081359050612b6081614174565b92915050565b600081359050612b758161418b565b92915050565b600081359050612b8a816141a2565b92915050565b600081519050612b9f816141a2565b92915050565b600082601f830112612bba57612bb9613af1565b5b8135612bca848260208601612b0f565b91505092915050565b600081359050612be2816141b9565b92915050565b600060208284031215612bfe57612bfd613b00565b5b6000612c0c84828501612b51565b91505092915050565b60008060408385031215612c2c57612c2b613b00565b5b6000612c3a85828601612b51565b9250506020612c4b85828601612b51565b9150509250929050565b600080600060608486031215612c6e57612c6d613b00565b5b6000612c7c86828701612b51565b9350506020612c8d86828701612b51565b9250506040612c9e86828701612bd3565b9150509250925092565b60008060008060808587031215612cc257612cc1613b00565b5b6000612cd087828801612b51565b9450506020612ce187828801612b51565b9350506040612cf287828801612bd3565b925050606085013567ffffffffffffffff811115612d1357612d12613afb565b5b612d1f87828801612ba5565b91505092959194509250565b60008060408385031215612d4257612d41613b00565b5b6000612d5085828601612b51565b9250506020612d6185828601612b66565b9150509250929050565b60008060408385031215612d8257612d81613b00565b5b6000612d9085828601612b51565b9250506020612da185828601612bd3565b9150509250929050565b600060208284031215612dc157612dc0613b00565b5b6000612dcf84828501612b7b565b91505092915050565b600060208284031215612dee57612ded613b00565b5b6000612dfc84828501612b90565b91505092915050565b600060208284031215612e1b57612e1a613b00565b5b6000612e2984828501612bd3565b91505092915050565b60008060408385031215612e4957612e48613b00565b5b6000612e5785828601612bd3565b9250506020612e6885828601612b51565b9150509250929050565b612e7b81613844565b82525050565b612e8a81613856565b82525050565b6000612e9b826136ec565b612ea58185613702565b9350612eb58185602086016138c7565b612ebe81613b05565b840191505092915050565b6000612ed4826136f7565b612ede8185613713565b9350612eee8185602086016138c7565b612ef781613b05565b840191505092915050565b6000612f0d826136f7565b612f178185613724565b9350612f278185602086016138c7565b80840191505092915050565b6000612f40603f83613713565b9150612f4b82613b16565b604082019050919050565b6000612f63602483613713565b9150612f6e82613b65565b604082019050919050565b6000612f86602b83613713565b9150612f9182613bb4565b604082019050919050565b6000612fa9603283613713565b9150612fb482613c03565b604082019050919050565b6000612fcc601583613713565b9150612fd782613c52565b602082019050919050565b6000612fef602683613713565b9150612ffa82613c7b565b604082019050919050565b6000613012601c83613713565b915061301d82613cca565b602082019050919050565b6000613035602483613713565b915061304082613cf3565b604082019050919050565b6000613058601983613713565b915061306382613d42565b602082019050919050565b600061307b602c83613713565b915061308682613d6b565b604082019050919050565b600061309e603883613713565b91506130a982613dba565b604082019050919050565b60006130c1602a83613713565b91506130cc82613e09565b604082019050919050565b60006130e4602983613713565b91506130ef82613e58565b604082019050919050565b6000613107602083613713565b915061311282613ea7565b602082019050919050565b600061312a602c83613713565b915061313582613ed0565b604082019050919050565b600061314d602083613713565b915061315882613f1f565b602082019050919050565b6000613170602983613713565b915061317b82613f48565b604082019050919050565b6000613193602f83613713565b915061319e82613f97565b604082019050919050565b60006131b6602183613713565b91506131c182613fe6565b604082019050919050565b60006131d9601783613713565b91506131e482614035565b602082019050919050565b60006131fc601a83613713565b91506132078261405e565b602082019050919050565b600061321f603683613713565b915061322a82614087565b604082019050919050565b6000613242603183613713565b915061324d826140d6565b604082019050919050565b6000613265602c83613713565b915061327082614125565b604082019050919050565b613284816138ae565b82525050565b60006132968285612f02565b91506132a28284612f02565b91508190509392505050565b60006020820190506132c36000830184612e72565b92915050565b60006080820190506132de6000830187612e72565b6132eb6020830186612e72565b6132f8604083018561327b565b818103606083015261330a8184612e90565b905095945050505050565b600060408201905061332a6000830185612e72565b613337602083018461327b565b9392505050565b60006020820190506133536000830184612e81565b92915050565b600060208201905081810360008301526133738184612ec9565b905092915050565b6000602082019050818103600083015261339481612f33565b9050919050565b600060208201905081810360008301526133b481612f56565b9050919050565b600060208201905081810360008301526133d481612f79565b9050919050565b600060208201905081810360008301526133f481612f9c565b9050919050565b6000602082019050818103600083015261341481612fbf565b9050919050565b6000602082019050818103600083015261343481612fe2565b9050919050565b6000602082019050818103600083015261345481613005565b9050919050565b6000602082019050818103600083015261347481613028565b9050919050565b600060208201905081810360008301526134948161304b565b9050919050565b600060208201905081810360008301526134b48161306e565b9050919050565b600060208201905081810360008301526134d481613091565b9050919050565b600060208201905081810360008301526134f4816130b4565b9050919050565b60006020820190508181036000830152613514816130d7565b9050919050565b60006020820190508181036000830152613534816130fa565b9050919050565b600060208201905081810360008301526135548161311d565b9050919050565b6000602082019050818103600083015261357481613140565b9050919050565b6000602082019050818103600083015261359481613163565b9050919050565b600060208201905081810360008301526135b481613186565b9050919050565b600060208201905081810360008301526135d4816131a9565b9050919050565b600060208201905081810360008301526135f4816131cc565b9050919050565b60006020820190508181036000830152613614816131ef565b9050919050565b6000602082019050818103600083015261363481613212565b9050919050565b6000602082019050818103600083015261365481613235565b9050919050565b6000602082019050818103600083015261367481613258565b9050919050565b6000602082019050613690600083018461327b565b92915050565b60006136a06136b1565b90506136ac828261392c565b919050565b6000604051905090565b600067ffffffffffffffff8211156136d6576136d5613ac2565b5b6136df82613b05565b9050602081019050919050565b600081519050919050565b600081519050919050565b600082825260208201905092915050565b600082825260208201905092915050565b600081905092915050565b600061373a826138ae565b9150613745836138ae565b9250827fffffffffffffffffffffffffffffffffffffffffffffffffffffffffffffffff0382111561377a576137796139d7565b5b828201905092915050565b6000613790826138ae565b915061379b836138ae565b9250826137ab576137aa613a06565b5b828204905092915050565b60006137c1826138ae565b91506137cc836138ae565b9250817fffffffffffffffffffffffffffffffffffffffffffffffffffffffffffffffff0483118215151615613805576138046139d7565b5b828202905092915050565b600061381b826138ae565b9150613826836138ae565b925082821015613839576138386139d7565b5b828203905092915050565b600061384f8261388e565b9050919050565b60008115159050919050565b60007fffffffff0000000000000000000000000000000000000000000000000000000082169050919050565b600073ffffffffffffffffffffffffffffffffffffffff82169050919050565b6000819050919050565b82818337600083830152505050565b60005b838110156138e55780820151818401526020810190506138ca565b838111156138f4576000848401525b50505050565b6000600282049050600182168061391257607f821691505b6020821081141561392657613925613a35565b5b50919050565b61393582613b05565b810181811067ffffffffffffffff8211171561395457613953613ac2565b5b80604052505050565b6000613968826138ae565b91507fffffffffffffffffffffffffffffffffffffffffffffffffffffffffffffffff82141561399b5761399a6139d7565b5b600182019050919050565b60006139b1826138ae565b91506139bc836138ae565b9250826139cc576139cb613a06565b5b828206905092915050565b7f4e487b7100000000000000000000000000000000000000000000000000000000600052601160045260246000fd5b7f4e487b7100000000000000000000000000000000000000000000000000000000600052601260045260246000fd5b7f4e487b7100000000000000000000000000000000000000000000000000000000600052602260045260246000fd5b7f4e487b7100000000000000000000000000000000000000000000000000000000600052603160045260246000fd5b7f4e487b7100000000000000000000000000000000000000000000000000000000600052603260045260246000fd5b7f4e487b7100000000000000000000000000000000000000000000000000000000600052604160045260246000fd5b600080fd5b600080fd5b600080fd5b600080fd5b6000601f19601f8301169050919050565b7f45786365656473206d6178696d756d207469636b657420737570706c792e205060008201527f6c656173652074727920746f206d696e74206c657373207469636b6574732e00602082015250565b7f416d6f756e74206f662045746865722073656e74206973206e6f7420636f727260008201527f6563742e00000000000000000000000000000000000000000000000000000000602082015250565b7f455243373231456e756d657261626c653a206f776e657220696e646578206f7560008201527f74206f6620626f756e6473000000000000000000000000000000000000000000602082015250565b7f4552433732313a207472616e7366657220746f206e6f6e20455243373231526560008201527f63656976657220696d706c656d656e7465720000000000000000000000000000602082015250565b7f4e6f2062616c616e636520666f722063616c6c65720000000000000000000000600082015250565b7f4f776e61626c653a206e6577206f776e657220697320746865207a65726f206160008201527f6464726573730000000000000000000000000000000000000000000000000000602082015250565b7f4552433732313a20746f6b656e20616c7265616479206d696e74656400000000600082015250565b7f4552433732313a207472616e7366657220746f20746865207a65726f2061646460008201527f7265737300000000000000000000000000000000000000000000000000000000602082015250565b7f4552433732313a20617070726f766520746f2063616c6c657200000000000000600082015250565b7f4552433732313a206f70657261746f7220717565727920666f72206e6f6e657860008201527f697374656e7420746f6b656e0000000000000000000000000000000000000000602082015250565b7f4552433732313a20617070726f76652063616c6c6572206973206e6f74206f7760008201527f6e6572206e6f7220617070726f76656420666f7220616c6c0000000000000000602082015250565b7f4552433732313a2062616c616e636520717565727920666f7220746865207a6560008201527f726f206164647265737300000000000000000000000000000000000000000000602082015250565b7f4552433732313a206f776e657220717565727920666f72206e6f6e657869737460008201527f656e7420746f6b656e0000000000000000000000000000000000000000000000602082015250565b7f4552433732313a206d696e7420746f20746865207a65726f2061646472657373600082015250565b7f4552433732313a20617070726f76656420717565727920666f72206e6f6e657860008201527f697374656e7420746f6b656e0000000000000000000000000000000000000000602082015250565b7f4f776e61626c653a2063616c6c6572206973206e6f7420746865206f776e6572600082015250565b7f4552433732313a207472616e73666572206f6620746f6b656e2074686174206960008201527f73206e6f74206f776e0000000000000000000000000000000000000000000000602082015250565b7f4552433732314d657461646174613a2055524920717565727920666f72206e6f60008201527f6e6578697374656e7420746f6b656e0000000000000000000000000000000000602082015250565b7f4552433732313a20617070726f76616c20746f2063757272656e74206f776e6560008201527f7200000000000000000000000000000000000000000000000000000000000000602082015250565b7f53616c652068617320616c726561647920656e6465642e000000000000000000600082015250565b7f596f752063616e6e6f74206d696e742030207469636b6574732e000000000000600082015250565b7f53616c6520686173206e6f7420737461727465642079657420736f20796f752060008201527f63616e2774206765742061207072696365207965742e00000000000000000000602082015250565b7f4552433732313a207472616e736665722063616c6c6572206973206e6f74206f60008201527f776e6572206e6f7220617070726f766564000000000000000000000000000000602082015250565b7f455243373231456e756d657261626c653a20676c6f62616c20696e646578206f60008201527f7574206f6620626f756e64730000000000000000000000000000000000000000602082015250565b61417d81613844565b811461418857600080fd5b50565b61419481613856565b811461419f57600080fd5b50565b6141ab81613862565b81146141b657600080fd5b50565b6141c2816138ae565b81146141cd57600080fd5b5056fea2646970667358221220939d2ba95d98a872fb1c24619ca81d198ecd8223fc4a39b212ffb50edccd281e64736f6c63430008070033",
  "linkReferences": {},
  "deployedLinkReferences": {}
}